:100000000C943A000C947D020C94A6020C94CF023E
:100010000C9457000C9457000C94C9030C9477036C
:100020000C94A0030C944E030C9425030C94FC0236
:100030000C9457000C9445040C9457000C946E04D7
:100040000C94D8010C9457000C9457000C94570052
:100050000C9457000D02130219021F0225022B02F5
:10006000310237024B02510257025D0263026902FC
:100070006F02750211241FBECFE5D8E0DEBFCDBFF1
:1000800010E0A0E6B0E0EEE3F9E002C005900D92CA
:10009000A436B107D9F720E0A4E6B0E001C01D9274
:1000A000A33EB207E1F70E94AD010C949D040C94AD
:1000B000000041E064E086E390E00E94010241E03C
:1000C00065E086E390E00E94010241E066E086E39D
:1000D00090E00E94010241E067E086E390E00E9428
:1000E000010240E062E080E390E00E94010240E013
:1000F00063E080E390E00E94010240E064E080E37E
:1001000090E00E94010240E065E080E390E00E9400
:10011000010241E064E086E390E00E943F0241E09A
:1001200065E086E390E00E943F0241E065E086E3FF
:1001300090E00E943F0241E065E086E390E00E948B
:100140003F020895DF92EF92FF920F931F93CF9398
:10015000DF93D82EE12CF12C07E010E035C04D2DB7
:1001600050E0002E02C0559547950A94E2F7417081
:10017000FE01E05AFF4F608186E390E00E943F025B
:1001800001501109219602C0C0E0D0E0C430D10571
:1001900034F341E062E089E390E00E943F028FE0A7
:1001A00097E20197F1F700C0000040E062E089E3C8
:1001B00090E00E943F028FE097E20197F1F700C0C4
:1001C00000009FEFE91AF90A82E0E816F104E4F270
:1001D000DF91CF911F910F91FF90EF90DF900895E5
:1001E000CF93C82F40E063E089E390E00E943F0294
:1001F0008C2F0E94A2008FEC97E00197F1F700C0CE
:100200000000CF91089541E063E089E390E00E940F
:10021000010241E062E089E390E00E94010241E0D6
:1002200060E086E390E00E94010241E061E086E345
:1002300090E00E94010241E062E086E390E00E94CB
:10024000010241E064E086E390E00E9401022FE7B2
:1002500088E391E0215080409040E1F700C0000029
:1002600040E063E089E390E00E943F0282E00E9468
:10027000F00082E00E94F00088E00E94F0008FEC25
:1002800097E00197F1F700C0000080E00E94F000C5
:100290008CE00E94F0008FEC97E00197F1F700C02E
:1002A000000080E00E94F00081E00E94F0008FE6F4
:1002B00097E10197F1F700C0000080E00E94F00094
:1002C00086E00E94F000089541E062E089E390E05A
:1002D0000E94010241E063E089E390E00E94010294
:1002E00041E065E086E390E00E94010241E066E0C3
:1002F00086E390E00E94010241E062E089E390E041
:100300000E943F0240E063E089E390E00E943F02E8
:1003100041E065E086E390E00E943F0241E066E054
:1003200086E390E00E943F0241E060E086E390E0D7
:100330000E94010241E061E086E390E00E94010238
:1003400041E062E086E390E00E94010241E064E067
:1003500086E390E00E9401020895CF93DF93CDB72A
:10036000DEB72A970FB6F894DEBF0FBECDBF0E944E
:1003700003010E9464010E9459000E94F20341E0BF
:1003800066E089E390E00E94010240E060E080E3E3
:1003900090E00E9401028EEF93E00E943E040E94D2
:1003A000FA030E94F802CE0101960E942004FBCFBE
:1003B0001F920F920FB60F9211242F933F934F93DA
:1003C0005F936F937F938F939F93AF93BF93EF93BD
:1003D000FF93E0916400F0916500309709F0099572
:1003E000FF91EF91BF91AF919F918F917F916F910D
:1003F0005F914F913F912F910F900FBE0F901F90E3
:1004000018950F931F93062F10E008301105A0F5E3
:10041000F801E65DFF4F0C949704FC01218140FB3D
:1004200020F9218329C0FC01218140FB21F921838E
:1004300023C0FC01218140FB22F921831DC0FC0166
:10044000218140FB23F9218317C0FC01218140FB5E
:1004500024F9218311C0FC01218140FB25F921836E
:100460000BC0FC01218140FB26F9218305C0FC0162
:10047000218140FB27F921831F910F9108950F934C
:100480001F93062F10E008301105A0F5F801EE5C6F
:10049000FF4F0C949704FC01228140FB20F922833A
:1004A00029C0FC01228140FB21F9228323C0FC01E9
:1004B000228140FB22F922831DC0FC01228140FBE6
:1004C00023F9228317C0FC01228140FB24F92283F7
:1004D00011C0FC01228140FB25F922830BC0FC01E5
:1004E000228140FB26F9228305C0FC01228140FBCA
:1004F00027F922831F910F9108951F920F920FB633
:100500000F9211242F933F934F935F936F937F9399
:100510008F939F93AF93BF93EF93FF93E091660008
:10052000F0916700309709F00995FF91EF91BF9125
:10053000AF919F918F917F916F915F914F913F917B
:100540002F910F900FBE0F901F9018951F920F9232
:100550000FB60F9211242F933F934F935F936F9396
:100560007F938F939F93AF93BF93EF93FF93E0910C
:100570006800F0916900309709F00995FF91EF91BB
:10058000BF91AF919F918F917F916F915F914F91AB
:100590003F912F910F900FBE0F901F9018951F92B3
:1005A0000F920FB60F9211242F933F934F935F93A7
:1005B0006F937F938F939F93AF93BF93EF93FF932B
:1005C000E0916A00F0916B00309709F00995FF9176
:1005D000EF91BF91AF919F918F917F916F915F91BB
:1005E0004F913F912F910F900FBE0F901F90189534
:1005F0008FB780688FBF08951F920F920FB60F922A
:1006000011242F933F934F935F936F937F938F9317
:100610009F93AF93BF93EF93FF93E0917600F09198
:100620007700309709F00995FF91EF91BF91AF9155
:100630009F918F917F916F915F914F913F912F91FA
:100640000F900FBE0F901F9018951F920F920FB62C
:100650000F9211242F933F934F935F936F937F9348
:100660008F939F93AF93BF93EF93FF93E0917400A9
:10067000F0917500309709F00995FF91EF91BF91C6
:10068000AF919F918F917F916F915F914F913F912A
:100690002F910F900FBE0F901F9018951F920F92E1
:1006A0000FB60F9211242F933F934F935F936F9345
:1006B0007F938F939F93AF93BF93EF93FF93E091BB
:1006C0007200F0917300309709F00995FF91EF9156
:1006D000BF91AF919F918F917F916F915F914F915A
:1006E0003F912F910F900FBE0F901F9018951F9262
:1006F0000F920FB60F9211242F933F934F935F9356
:100700006F937F938F939F93AF93BF93EF93FF93D9
:10071000E0917000F0917100309709F00995FF9118
:10072000EF91BF91AF919F918F917F916F915F9169
:100730004F913F912F910F900FBE0F901F901895E2
:100740001F920F920FB60F9211242F933F934F9346
:100750005F936F937F938F939F93AF93BF93EF9329
:10076000FF93E0916E00F0916F00309709F00995CA
:10077000FF91EF91BF91AF919F918F917F916F9179
:100780005F914F913F912F910F900FBE0F901F904F
:1007900018951F920F920FB60F9211242F933F932B
:1007A0004F935F936F937F938F939F93AF93BF9379
:1007B000EF93FF93E0916C00F0916D00309709F09A
:1007C0000995FF91EF91BF91AF919F918F917F918B
:1007D0006F915F914F913F912F910F900FBE0F90AE
:1007E0001F90189510BC83E389B988E18AB986E81F
:1007F00080BD08958AB180688AB90895E091780033
:10080000F09179008CB1E558FF4F8083809178009A
:100810009091790001969093790080937800E0910F
:100820007800F0917900E558FF4F8081833239F4E8
:1008300081E080937A0010927900109278000895F8
:10084000FC0180917A00813049F080E00895DF0159
:10085000A20FB31F9C932F5F3F4F02C020E030E0F8
:10086000D901A558BF4F9C919111F1CF2150310969
:10087000E20FF31F108210927A000895009721F082
:100880009093E2008093E10008951F920F920FB6BB
:100890000F9211242F933F934F935F936F937F9306
:1008A0008F939F93AF93BF93EF93FF93E091E100FA
:1008B000F091E200309709F00995FF91EF91BF9117
:1008C000AF919F918F917F916F915F914F913F91E8
:1008D0002F910F900FBE0F901F9018951F920F929F
:1008E0000FB60F9211242F933F934F935F936F9303
:1008F0007F938F939F93AF93BF93EF93FF93E09179
:10090000DF00F091E000309709F00995FF91EF9139
:10091000BF91AF919F918F917F916F915F914F9117
:100920003F912F910F900FBE0F901F901895EE0FD3
:0E093000FF1F0590F491E02D0994F894FFCF7D
:04093E0004020100AE
:00000001FF
