:100000000C943A000C9465030C948E030C94B70383
:100010000C9457000C9457000C9405050C94B304F1
:100020000C94DC040C948A040C9461040C94380441
:100030000C9457000C942E050C9457000C94570503
:100040000C94C0020C9457000C9457000C94570069
:100050000C945700F502FB02010307030D03130381
:1000600019031F03330339033F0345034B035103B4
:1000700057035D0311241FBECFE5D8E0DEBFCDBF1F
:1000800010E0A0E6B0E0E0E0FCE002C005900D92D8
:10009000A436B107D9F720E0A4E6B0E001C01D9274
:1000A000AC37B207E1F70E9497020C94FE050C945E
:1000B00000000E94700243E062E083E00E94E003DF
:1000C0000E949A0141E063E086E390E00E94E90229
:1000D0000895CF93DF930E9466020E947902EC019B
:1000E000BC0180E090E00E94FB01C931D10520F401
:1000F00080E00E942D040CC0C332D10520F482E3BD
:100100000E942D0405C0A49718F080E50E942D04DC
:100110002FEF80E792E0215080409040E1F700C04F
:100120000000DF91CF91089541E062E089E390E023
:100130000E94E90241E063E089E390E00E94E90265
:1001400041E065E086E390E00E94E90241E066E07C
:1001500086E390E00E94E90241E062E089E390E0FA
:100160000E94270340E063E089E390E00E942703B8
:1001700041E065E086E390E00E94270341E066E00D
:1001800086E390E00E94270341E060E086E390E090
:100190000E94E90241E061E086E390E00E94E9020A
:1001A00041E062E086E390E00E94E90241E064E021
:1001B00086E390E00E94E902089541E064E086E36E
:1001C00090E00E94E90241E065E086E390E00E9451
:1001D000E90241E066E086E390E00E94E90241E046
:1001E00067E086E390E00E94E90240E062E080E39D
:1001F00090E00E94E90240E063E080E390E00E942A
:10020000E90240E064E080E390E00E94E90240E01F
:1002100065E080E390E00E94E90241E064E086E36B
:1002200090E00E94270341E065E086E390E00E94B1
:10023000270341E065E086E390E00E94270341E068
:1002400065E086E390E00E9427030895DF92EF9235
:10025000FF920F931F93CF93DF93D82EE12CF12CB5
:1002600007E010E035C04D2D50E0002E02C055953E
:1002700047950A94E2F74170FE01E05AFF4F608112
:1002800089E390E00E94270301501109219602C0E2
:10029000C0E0D0E0C430D10534F341E062E089E34E
:1002A00090E00E9427038FE097E20197F1F700C0EA
:1002B000000040E062E089E390E00E9427038FE0C5
:1002C00097E20197F1F700C000009FEFE91AF90AE1
:1002D00082E0E816F104E4F2DF91CF911F910F91D3
:1002E000FF90EF90DF900895CF93C82F41E061E039
:1002F00089E390E00E9427038C2F0E9426018FEC57
:1003000097E00197F1F700C00000CF910895CF93D7
:10031000C82F40E061E089E390E00E9427038C2F22
:100320000E9426018FEC97E00197F1F700C00000D2
:10033000CF91089541E061E089E390E00E94E902F5
:1003400041E062E089E390E00E94E90241E063E07D
:1003500089E390E00E94E90241E064E089E390E0F3
:100360000E94E90241E065E089E390E00E94E90231
:1003700041E066E089E390E00E94E9022FE788E32C
:1003800091E0215080409040E1F700C0000040E043
:1003900061E089E390E00E94270382E00E948701E8
:1003A00082E00E94870188E00E9487018FEC97E03D
:1003B0000197F1F700C0000080E00E9487018CE007
:1003C0000E9487018FEC97E00197F1F700C00000D1
:1003D00080E00E94870181E00E9487018FE697E11B
:1003E0000197F1F700C0000080E00E94870186E0DD
:1003F0000E9487010895CF92DF92EF92FF920F93B0
:100400001F93CF93DF93CDB7DEB764970FB6F89401
:10041000DEBF0FBECDBF6B017C01FE01319684E1D2
:10042000DF011D928A95E9F7C114D104E104F104BA
:1004300021F480E30E9474013AC0FF205CF48DE255
:100440000E947401F094E094D094C094C11CD11C1B
:10045000E11CF11C00E010E015C0C701B6012AE064
:1004600030E040E050E00E94CA05E1E0F0E0EC0F2F
:10047000FD1FE00FF11F6083C22ED32EE42EF52E58
:100480000F5F1F4F1C141D041E041F0434F30CC007
:1004900001501109E1E0F0E0EC0FFD1FE00FF11F4A
:1004A0008081805D0E947401101611068CF36496A1
:1004B0000FB6F894DEBF0FBECDBFDF91CF911F9175
:1004C0000F91FF90EF90DF90CF90089581E00E9410
:1004D00087018FEC97E00197F1F700C000000895C5
:1004E00040E060E089E390E00E94E9020E94A002FF
:1004F000089580E00E94B2029C01A8E8B3E10E9446
:10050000EF059B01AC01012E1AE0569547953795F2
:1005100027951A95D1F7102DADECBCEC0E94EF0594
:1005200096958795969587959695879508950E94B7
:1005300094000E94DD000E9459000E946900FDCFD6
:1005400086B1887F86B986B1836086B987B18F739B
:1005500087B987B187B987B18F7D87B986B1806840
:1005600086B9089597B1907E97B997B1892B87B9CD
:1005700086B1806486B93699FECF84B195B108956D
:100580001F920F920FB60F9211242F933F934F9308
:100590005F936F937F938F939F93AF93BF93EF93EB
:1005A000FF93E0916400F0916500309709F00995A0
:1005B000FF91EF91BF91AF919F918F917F916F913B
:1005C0005F914F913F912F910F900FBE0F901F9011
:1005D00018950F931F93062F10E008301105A0F512
:1005E000F801E65DFF4F0C94E905FC01218140FB19
:1005F00020F9218329C0FC01218140FB21F92183BD
:1006000023C0FC01218140FB22F921831DC0FC0194
:10061000218140FB23F9218317C0FC01218140FB8C
:1006200024F9218311C0FC01218140FB25F921839C
:100630000BC0FC01218140FB26F9218305C0FC0190
:10064000218140FB27F921831F910F9108950F937A
:100650001F93062F10E008301105A0F5F801EE5C9D
:10066000FF4F0C94E905FC01228140FB20F9228315
:1006700029C0FC01228140FB21F9228323C0FC0117
:10068000228140FB22F922831DC0FC01228140FB14
:1006900023F9228317C0FC01228140FB24F9228325
:1006A00011C0FC01228140FB25F922830BC0FC0113
:1006B000228140FB26F9228305C0FC01228140FBF8
:1006C00027F922831F910F9108951F920F920FB661
:1006D0000F9211242F933F934F935F936F937F93C8
:1006E0008F939F93AF93BF93EF93FF93E091660037
:1006F000F0916700309709F00995FF91EF91BF9154
:10070000AF919F918F917F916F915F914F913F91A9
:100710002F910F900FBE0F901F9018951F920F9260
:100720000FB60F9211242F933F934F935F936F93C4
:100730007F938F939F93AF93BF93EF93FF93E0913A
:100740006800F0916900309709F00995FF91EF91E9
:10075000BF91AF919F918F917F916F915F914F91D9
:100760003F912F910F900FBE0F901F9018951F92E1
:100770000F920FB60F9211242F933F934F935F93D5
:100780006F937F938F939F93AF93BF93EF93FF9359
:10079000E0916A00F0916B00309709F00995FF91A4
:1007A000EF91BF91AF919F918F917F916F915F91E9
:1007B0004F913F912F910F900FBE0F901F90189562
:1007C000813069F028F0823089F08330B1F01BC0AD
:1007D00083B78F7B83BF83B7877F83BF14C083B703
:1007E000806483BF83B7877F83BF0DC083B78F7B50
:1007F00083BF83B7886083BF06C083B7806483BF2D
:1008000083B7886083BF413069F028F0423089F0B7
:100810004330B1F01BC083B78F7E83BF83B78F7D1A
:1008200083BF14C083B7806183BF83B78F7D83BFCD
:100830000DC083B78F7E83BF83B7806283BF06C03E
:1008400083B7806183BF83B7806283BF83B7887FAC
:1008500083BF83B7682B63BF08952FEF829FC001CA
:10086000112464E670E00E94940560956CBF0895C1
:100870001F920F920FB60F9211242F933F934F9315
:100880005F936F937F938F939F93AF93BF93EF93F8
:10089000FF93E0917600F0917700309709F0099589
:1008A000FF91EF91BF91AF919F918F917F916F9148
:1008B0005F914F913F912F910F900FBE0F901F901E
:1008C00018951F920F920FB60F9211242F933F93FA
:1008D0004F935F936F937F938F939F93AF93BF9348
:1008E000EF93FF93E0917400F0917500309709F059
:1008F0000995FF91EF91BF91AF919F918F917F915A
:100900006F915F914F913F912F910F900FBE0F907C
:100910001F9018951F920F920FB60F9211242F93CC
:100920003F934F935F936F937F938F939F93AF9377
:10093000BF93EF93FF93E0917200F09173003097B3
:1009400009F00995FF91EF91BF91AF919F918F9120
:100950007F916F915F914F913F912F910F900FBEBB
:100960000F901F9018951F920F920FB60F9211249F
:100970002F933F934F935F936F937F938F939F93A7
:10098000AF93BF93EF93FF93E0917000F0917100EC
:10099000309709F00995FF91EF91BF91AF919F9129
:1009A0008F917F916F915F914F913F912F910F9018
:1009B0000FBE0F901F9018951F920F920FB60F92B7
:1009C00011242F933F934F935F936F937F938F9354
:1009D0009F93AF93BF93EF93FF93E0916E00F091DD
:1009E0006F00309709F00995FF91EF91BF91AF919A
:1009F0009F918F917F916F915F914F913F912F9137
:100A00000F900FBE0F901F9018951F920F920FB668
:100A10000F9211242F933F934F935F936F937F9384
:100A20008F939F93AF93BF93EF93FF93E0916C00ED
:100A3000F0916D00309709F00995FF91EF91BF910A
:100A4000AF919F918F917F916F915F914F913F9166
:100A50002F910F900FBE0F901F9018951F920F921D
:100A60000FB60F9211242F933F934F935F936F9381
:100A70007F938F939F93AF93BF93EF93FF93E091F7
:100A80007A00F0917B00309709F00995FF91EF9182
:100A9000BF91AF919F918F917F916F915F914F9196
:100AA0003F912F910F900FBE0F901F9018951F929E
:100AB0000F920FB60F9211242F933F934F935F9392
:100AC0006F937F938F939F93AF93BF93EF93FF9316
:100AD000E0917800F0917900309709F00995FF9145
:100AE000EF91BF91AF919F918F917F916F915F91A6
:100AF0004F913F912F910F900FBE0F901F9018951F
:100B0000AA1BBB1B51E107C0AA1FBB1FA617B70733
:100B100010F0A61BB70B881F991F5A95A9F780954F
:100B20009095BC01CD01089597FB072E16F4009413
:100B300007D077FD09D00E94800507FC05D03EF460
:100B4000909581959F4F0895709561957F4F089579
:100B5000A1E21A2EAA1BBB1BFD010DC0AA1FBB1FC1
:100B6000EE1FFF1FA217B307E407F50720F0A21B33
:100B7000B30BE40BF50B661F771F881F991F1A94A0
:100B800069F760957095809590959B01AC01BD01CA
:100B9000CF010895052E97FB1EF400940E94E105F5
:100BA00057FD07D00E94A80507FC03D04EF40C9413
:100BB000E10550954095309521953F4F4F4F5F4F40
:100BC000089590958095709561957F4F8F4F9F4FB9
:100BD0000895EE0FFF1F0590F491E02D0994A29F58
:100BE000B001B39FC001A39F700D811D1124911D01
:100BF000B29F700D811D1124911D0895F894FFCFAF
:040C000006050403DE
:00000001FF
