:100000000C943A000C949C020C94C5020C94EE02E1
:100010000C9457000C9457000C9430040C94DE039D
:100020000C9407040C94B5030C948C030C94630398
:100030000C9457000C9459040C9457000C948204AF
:100040000C94F7010C9457000C9457000C94570033
:100050000C9457002C02320238023E0244024A023B
:10006000500256026A02700276027C028202880204
:100070008E02940211241FBECFE5D8E0DEBFCDBFB3
:1000800010E0A0E6B0E0E6E6F9E002C005900D92CF
:10009000A436B107D9F720E0A4E6B0E001C01D9274
:1000A000AC37B207E1F70E94C0010C94B1040C9484
:1000B000000041E062E089E390E00E94200241E01C
:1000C00063E089E390E00E94200241E065E086E37E
:1000D00090E00E94200241E066E086E390E00E940A
:1000E000200241E062E089E390E00E945E0240E08D
:1000F00063E089E390E00E945E0241E065E086E310
:1001000090E00E945E0241E066E086E390E00E949B
:100110005E0241E060E086E390E00E94200241E060
:1001200061E086E390E00E94200241E062E086E325
:1001300090E00E94200241E064E086E390E00E94AB
:100140002002089541E064E086E390E00E942002EE
:1001500041E065E086E390E00E94200241E066E035
:1001600086E390E00E94200241E067E086E390E0B1
:100170000E94200240E062E080E390E00E942002C2
:1001800040E063E080E390E00E94200240E064E011
:1001900080E390E00E94200240E065E080E390E090
:1001A0000E94200241E064E086E390E00E945E024B
:1001B00041E065E086E390E00E945E0241E065E098
:1001C00086E390E00E945E0241E065E086E390E015
:1001D0000E945E020895DF92EF92FF920F931F93A9
:1001E000CF93DF93D82EE12CF12C07E010E035C03F
:1001F0004D2D50E0002E02C0559547950A94E2F728
:100200004170FE01E05AFF4F608189E390E00E9457
:100210005E0201501109219602C0C0E0D0E0C43056
:10022000D10534F341E062E089E390E00E945E0290
:100230008FE097E20197F1F700C0000040E062E034
:1002400089E390E00E945E028FE097E20197F1F768
:1002500000C000009FEFE91AF90A82E0E816F104F5
:10026000E4F2DF91CF911F910F91FF90EF90DF901B
:100270000895CF93C82F41E061E089E390E00E94A8
:100280005E028C2F0E94EB008FEC97E00197F1F754
:1002900000C00000CF910895CF93C82F40E061E0E7
:1002A00089E390E00E945E028C2F0E94EB008FECAD
:1002B00097E00197F1F700C00000CF91089541E069
:1002C00061E089E390E00E94200241E062E089E37E
:1002D00090E00E94200241E063E089E390E00E9408
:1002E000200241E064E089E390E00E94200241E0C6
:1002F00065E089E390E00E94200241E066E089E346
:1003000090E00E9420022FE788E391E02150804096
:100310009040E1F700C0000040E061E089E390E038
:100320000E945E0282E00E944C0182E00E944C0129
:1003300088E00E944C018FEC97E00197F1F700C034
:10034000000080E00E944C018CE00E944C018FEC88
:1003500097E00197F1F700C0000080E00E944C0197
:1003600081E00E944C018FE697E10197F1F700C010
:10037000000080E00E944C0186E00E944C0108953C
:10038000CF93DF931F92CDB7DEB70E945F010E942B
:1003900059000E94A2000E94E40160E081E00E94F6
:1003A00017030E94510310E081E40E944A03CE012A
:1003B00001960E945A0389810E9439011F5F1530FE
:1003C00099F70E945703F0CF86B1887F86B986B12E
:1003D000836086B987B18F7387B987B1806487B925
:1003E00087B18F7D87B986B1806886B908951F92DD
:1003F0000F920FB60F9211242F933F934F935F9359
:100400006F937F938F939F93AF93BF93EF93FF93DC
:10041000E0916400F0916500309709F00995FF9133
:10042000EF91BF91AF919F918F917F916F915F916C
:100430004F913F912F910F900FBE0F901F901895E5
:100440000F931F93062F10E008301105A0F5F80157
:10045000E65DFF4F0C94AB04FC01218140FB20F9C9
:10046000218329C0FC01218140FB21F9218323C084
:10047000FC01218140FB22F921831DC0FC01218167
:1004800040FB23F9218317C0FC01218140FB24F9A3
:10049000218311C0FC01218140FB25F921830BC080
:1004A000FC01218140FB26F9218305C0FC0121814B
:1004B00040FB27F921831F910F9108950F931F93FC
:1004C000062F10E008301105A0F5F801EE5CFF4F93
:1004D0000C94AB04FC01228140FB20F9228329C04B
:1004E000FC01228140FB21F9228323C0FC012281EF
:1004F00040FB22F922831DC0FC01228140FB23F92D
:10050000228317C0FC01228140FB24F9228311C001
:10051000FC01228140FB25F922830BC0FC012281D2
:1005200040FB26F9228305C0FC01228140FB27F90C
:1005300022831F910F9108951F920F920FB60F9271
:1005400011242F933F934F935F936F937F938F93D8
:100550009F93AF93BF93EF93FF93E0916600F09169
:100560006700309709F00995FF91EF91BF91AF9126
:100570009F918F917F916F915F914F913F912F91BB
:100580000F900FBE0F901F9018951F920F920FB6ED
:100590000F9211242F933F934F935F936F937F9309
:1005A0008F939F93AF93BF93EF93FF93E091680076
:1005B000F0916900309709F00995FF91EF91BF9193
:1005C000AF919F918F917F916F915F914F913F91EB
:1005D0002F910F900FBE0F901F9018951F920F92A2
:1005E0000FB60F9211242F933F934F935F936F9306
:1005F0007F938F939F93AF93BF93EF93FF93E0917C
:100600006A00F0916B00309709F00995FF91EF9126
:10061000BF91AF919F918F917F916F915F914F911A
:100620003F912F910F900FBE0F901F90189591B191
:100630009C7F91B991B1982B91B9662319F06130E3
:10064000A9F00895813049F028F0823049F08330D4
:1006500051F0089588E780B908958EE180B9089532
:1006600087E880B9089581EE80B90895813049F016
:1006700028F0823049F0833051F0089588E180B944
:10068000089586E880B9089581EE80B9089588E3D9
:1006900080B9089583B984EA86BF06B607FEFDCF08
:1006A000089584EA86BF06B607FEFDCF089584E963
:1006B00086BF089524EC26BF06B607FEFDCF23B102
:1006C000FC01208308951F920F920FB60F92112400
:1006D0002F933F934F935F936F937F938F939F934A
:1006E000AF93BF93EF93FF93E0917600F091770083
:1006F000309709F00995FF91EF91BF91AF919F91CC
:100700008F917F916F915F914F913F912F910F90BA
:100710000FBE0F901F9018951F920F920FB60F9259
:1007200011242F933F934F935F936F937F938F93F6
:100730009F93AF93BF93EF93FF93E0917400F09179
:100740007500309709F00995FF91EF91BF91AF9136
:100750009F918F917F916F915F914F913F912F91D9
:100760000F900FBE0F901F9018951F920F920FB60B
:100770000F9211242F933F934F935F936F937F9327
:100780008F939F93AF93BF93EF93FF93E09172008A
:10079000F0917300309709F00995FF91EF91BF91A7
:1007A000AF919F918F917F916F915F914F913F9109
:1007B0002F910F900FBE0F901F9018951F920F92C0
:1007C0000FB60F9211242F933F934F935F936F9324
:1007D0007F938F939F93AF93BF93EF93FF93E0919A
:1007E0007000F0917100309709F00995FF91EF9139
:1007F000BF91AF919F918F917F916F915F914F9139
:100800003F912F910F900FBE0F901F9018951F9240
:100810000F920FB60F9211242F933F934F935F9334
:100820006F937F938F939F93AF93BF93EF93FF93B8
:10083000E0916E00F0916F00309709F00995FF91FB
:10084000EF91BF91AF919F918F917F916F915F9148
:100850004F913F912F910F900FBE0F901F901895C1
:100860001F920F920FB60F9211242F933F934F9325
:100870005F936F937F938F939F93AF93BF93EF9308
:10088000FF93E0916C00F0916D00309709F00995AD
:10089000FF91EF91BF91AF919F918F917F916F9158
:1008A0005F914F913F912F910F900FBE0F901F902E
:1008B00018951F920F920FB60F9211242F933F930A
:1008C0004F935F936F937F938F939F93AF93BF9358
:1008D000EF93FF93E0917A00F0917B00309709F05D
:1008E0000995FF91EF91BF91AF919F918F917F916A
:1008F0006F915F914F913F912F910F900FBE0F908D
:100900001F9018951F920F920FB60F9211242F93DC
:100910003F934F935F936F937F938F939F93AF9387
:10092000BF93EF93FF93E0917800F09179003097B7
:1009300009F00995FF91EF91BF91AF919F918F9130
:100940007F916F915F914F913F912F910F900FBECB
:100950000F901F901895EE0FFF1F0590F491E02D5A
:060960000994F894FFCF9A
:04096600060504037B
:00000001FF
