:100000000C9442000C9423040C944C040C9475043E
:100010000C945F000C945F000C945F000C945F00E4
:100020000C945F000C945F000C945F000C945F00D4
:100030000C945F000C945F000C945F000C945F00C4
:100040000C9447030C945F000C945F000C945F00C9
:100050000C945F007C03820388038E0394039A034D
:10006000A003A603BA03C003C603CC03D203D8037C
:10007000DE03E403F603FA03FF0305040B04100494
:1000800016041C0411241FBECFE5D8E0DEBFCDBF8F
:1000900010E0A0E6B0E0ECE4F9E002C005900D92BB
:1000A000AE3EB107D9F720E0AEEEB0E001C01D9240
:1000B000A63FB207E1F70E941E030C94A4040C941F
:1000C0000000CF92DF92EF92FF920F931F93CF9396
:1000D000DF9385EB90E00E94B50200E010E0C12CB8
:1000E000D12C760127C00E949501C82F843511F1CB
:1000F0000E942E02CC0CDD1CEE1CFF1CD701C60199
:10010000880F991FAA1FBB1F880F991FAA1FBB1F0B
:10011000C80ED91EEA1EFB1E8C2F90E0EC01E09762
:10012000CE01DD0FAA0BBB0BC80ED91EEA1EFB1EAB
:100130000F5F1F4F04301105B4F2C701B601DF9104
:10014000CF911F910F91FF90EF90DF90CF90089586
:10015000CF92DF92EF92FF920F931F93CF93DF9393
:100160000E94CB0280EC90E00E94B50200E010E01B
:10017000C12CD12C760128C00E949501C82F84354E
:1001800019F18AE20E942E02CC0CDD1CEE1CFF1C31
:10019000D701C601880F991FAA1FBB1F880F991F7F
:1001A000AA1FBB1FC80ED91EEA1EFB1E8C2F90E093
:1001B000EC01E097CE01DD0FAA0BBB0BC80ED91ED8
:1001C000EA1EFB1E0F5F1F4F04301105ACF2C70182
:1001D000B601DF91CF911F910F91FF90EF90DF90CB
:1001E000CF9008950F931F930E94610040E013C0C9
:1001F0002CE1429FF0011124EF59FF4F048915892A
:1002000026893789601771078207930719F440938D
:10021000600003C04F5F423058F30E94A800E09195
:1002200060002CE1E29FF0011124EF59FF4F008D97
:10023000118D228D338D601771078207930711F49A
:1002400082E001C081E01F910F910895CF930E9439
:10025000F200C82F0E94CB02C13049F018F0C23022
:1002600059F018C08DEC90E00E94B50213C086EDE5
:1002700090E00E94B5020EC085EE90E00E94B502AB
:10028000809160002CE1829FC00111248F599F4F03
:100290000E94B502CF91089541E064E086E390E0CA
:1002A0000E94700341E065E086E390E00E947003E5
:1002B00041E066E086E390E00E94700341E067E081
:1002C00086E390E00E94700340E062E080E390E00B
:1002D0000E94700340E063E080E390E00E947003BE
:1002E00040E064E080E390E00E94700340E065E05D
:1002F00080E390E00E94700341E064E086E390E0D8
:100300000E94AE0341E065E086E390E00E94AE0308
:1003100041E065E086E390E00E94AE0341E065E0E5
:1003200086E390E00E94AE0308950F931F93CF934E
:10033000DF9300E010E03BC040E0F801E755FF4FDD
:10034000608186E390E00E94AE03C0E0D0E021C06F
:10035000FE01E355FF4F608180E390E00E94EC03D3
:10036000811116C0F801EE0FFF1FEE0FFF1FE756B9
:10037000FF4FEC0FFD1F1081FE01E355FF4F608121
:1003800080E390E00E94EC038823B1F3812F13C037
:100390002196C430D105E4F2F801E755FF4F41E062
:1003A000608186E390E00E94AE030F5F1F4F043030
:1003B000110514F284E5DF91CF911F910F910895FB
:1003C000DF92EF92FF920F931F93CF93DF93D82E7C
:1003D000E12CF12C07E010E035C04D2D50E0002E4F
:1003E00002C0559547950A94E2F74170FE01EF541B
:1003F000FF4F608189E390E00E94AE030150110934
:10040000219602C0C0E0D0E0C430D10534F341E011
:1004100062E089E390E00E94AE038FE097E20197EB
:10042000F1F700C0000040E062E089E390E00E9444
:10043000AE038FE097E20197F1F700C000009FEF55
:10044000E91AF90A82E0E816F104E4F2DF91CF91AB
:100450001F910F91FF90EF90DF900895CF93C82FD9
:1004600041E061E089E390E00E94AE038C2F0E949E
:10047000E0018FEC97E00197F1F700C00000CF9109
:100480000895CF93C82F40E061E089E390E00E9497
:10049000AE038C2F0E94E0018FEC97E00197F1F7FB
:1004A00000C00000CF91089541E061E089E390E051
:1004B0000E94700341E062E089E390E00E947003D3
:1004C00041E063E089E390E00E94700341E064E072
:1004D00089E390E00E94700341E065E089E390E0E9
:1004E0000E94700341E066E089E390E00E9470039F
:1004F0002FE788E391E0215080409040E1F700C071
:10050000000040E061E089E390E00E94AE0382E0F9
:100510000E94410282E00E94410288E00E94410262
:100520008FEC97E00197F1F700C0000080E00E9497
:1005300041028CE00E9441028FEC97E00197F1F7B5
:1005400000C0000080E00E94410281E00E94410260
:100550008FE697E10197F1F700C0000080E00E946C
:10056000410286E00E94410208950F931F93CF93AA
:10057000DF938C01C0E0D0E003C00E942E022196E0
:10058000F801EC0FFD1F80818111F7CFDF91CF9132
:100590001F910F91089581E00E9441028FEC97E036
:1005A0000197F1F700C00000089541E062E089E39F
:1005B00090E00E94700341E063E089E390E00E94D4
:1005C000700341E065E086E390E00E94700341E043
:1005D00066E086E390E00E94700341E062E089E318
:1005E00090E00E94AE0340E063E089E390E00E9467
:1005F000AE0341E065E086E390E00E94AE0341E097
:1006000066E086E390E00E94AE0341E060E086E3AE
:1006100090E00E94700341E061E086E390E00E9478
:10062000700341E062E086E390E00E94700341E0E5
:1006300064E086E390E00E94700308950E945402F3
:100640000E94D5020E944C010E9434030E94CB02FA
:100650000E9426012FEF8DE399E4215080409040C5
:10066000E1F700C00000F2CF86B1887F86B986B17D
:10067000876086B987B18F7387B987B1806C87B976
:1006800087B18F7D87B986B1806886B908951F923A
:100690000F920FB60F9211242F933F934F935F93B6
:1006A0006F937F938F939F93AF93BF93EF93FF933A
:1006B000E091EE00F091EF00309709F00995FF917D
:1006C000EF91BF91AF919F918F917F916F915F91CA
:1006D0004F913F912F910F900FBE0F901F90189543
:1006E0000F931F93062F10E008301105A0F5F801B5
:1006F000E65DFF4F0C949E04FC01218140FB20F934
:10070000218329C0FC01218140FB21F9218323C0E1
:10071000FC01218140FB22F921831DC0FC012181C4
:1007200040FB23F9218317C0FC01218140FB24F900
:10073000218311C0FC01218140FB25F921830BC0DD
:10074000FC01218140FB26F9218305C0FC012181A8
:1007500040FB27F921831F910F9108950F931F9359
:10076000062F10E008301105A0F5F801EE5CFF4FF0
:100770000C949E04FC01228140FB20F9228329C0B5
:10078000FC01228140FB21F9228323C0FC0122814C
:1007900040FB22F922831DC0FC01228140FB23F98A
:1007A000228317C0FC01228140FB24F9228311C05F
:1007B000FC01228140FB25F922830BC0FC01228130
:1007C00040FB26F9228305C0FC01228140FB27F96A
:1007D00022831F910F910895462F50E04830510514
:1007E00080F5FA01E65CFF4F0C949E04FC01208129
:1007F000217027C0FC0120812695217022C0FC01B8
:10080000208122FB222720F91CC0FC01208123FB30
:10081000222720F916C0FC0120812295217011C0E9
:10082000FC01208125FB222720F90BC0FC0120813F
:1008300026FB222720F905C0FC01208127FB222767
:1008400020F9822F08951F920F920FB60F92112454
:100850002F933F934F935F936F937F938F939F93C8
:10086000AF93BF93EF93FF93E091F000F091F1000D
:10087000309709F00995FF91EF91BF91AF919F914A
:100880008F917F916F915F914F913F912F910F9039
:100890000FBE0F901F9018951F920F920FB60F92D8
:1008A00011242F933F934F935F936F937F938F9375
:1008B0009F93AF93BF93EF93FF93E091F200F0917A
:1008C000F300309709F00995FF91EF91BF91AF9137
:1008D0009F918F917F916F915F914F913F912F9158
:1008E0000F900FBE0F901F9018951F920F920FB68A
:1008F0000F9211242F933F934F935F936F937F93A6
:100900008F939F93AF93BF93EF93FF93E091F40086
:10091000F091F500309709F00995FF91EF91BF91A3
:10092000AF919F918F917F916F915F914F913F9187
:100930002F910F900FBE0F901F901895EE0FFF1F75
:0C0940000590F491E02D0994F894FFCF8D
:10094C00FF41484D454420414C4900000000000047
:10095C000000000000D2040000C4130000534152F8
:10096C0041204F4D415200000000000000000000EB
:10097C00002E160000FC0300003738392F343536B2
:10098C002A3132332D43303D2B0405060702030474
:10099C000506050403656E7465722069643A2000CF
:1009AC00656E74657220706173733A200077726F94
:1009BC006E672049440077726F6E672070617373A5
:0E09CC00776F72640057656C636F6D65000095
:00000001FF
