S00F00004E54495F4156522E73726563E2
S11300000C9442000C9414010C943D010C94660170
S11300100C945F000C945F000C945F000C945F00E0
S11300200C945F000C945F000C945F000C945F00D0
S11300300C945F000C945F000C945F000C945F00C0
S11300400C945F000C945F000C945F000C945F00B0
S11300500C945F006D00730079007F0085008B00B5
S113006091009700AB00B100B700BD00C300C90008
S1130070CF00D500E700EB00F000F600FC00010122
S113008007010D0111241FBECFE5D8E0DEBFCDBFAF
S113009010E0A0E6B0E0E2E1F5E002C005900D92C8
S11300A0A837B107D9F720E0A8E7B0E001C01D9256
S11300B0AE37B207E1F70E9423020C9487020C9436
S11300C000000F931F93062F10E008301105A0F5D0
S11300D0F801E65DFF4F0C948102FC01218140FB95
S11300E020F9218329C0FC01218140FB21F92183CE
S11300F023C0FC01218140FB22F921831DC0FC01A6
S1130100218140FB23F9218317C0FC01218140FB9D
S113011024F9218311C0FC01218140FB25F92183AD
S11301200BC0FC01218140FB26F9218305C0FC01A1
S1130130218140FB27F921831F910F9108950F938B
S11301401F93062F10E008301105A0F5F801EE5CAE
S1130150FF4F0C948102FC01228140FB20F9228391
S113016029C0FC01228140FB21F9228323C0FC0128
S1130170228140FB22F922831DC0FC01228140FB25
S113018023F9228317C0FC01228140FB24F9228336
S113019011C0FC01228140FB25F922830BC0FC0124
S11301A0228140FB26F9228305C0FC01228140FB09
S11301B027F922831F910F910895462F50E048306C
S11301C0510580F5FA01E65CFF4F0C948102FC01B5
S11301D02081217027C0FC0120812695217022C036
S11301E0FC01208122FB222720F91CC0FC01208174
S11301F023FB222720F916C0FC01208122952170BF
S113020011C0FC01208125FB222720F90BC0FC0131
S1130210208126FB222720F905C0FC01208127FB31
S1130220222720F9822F08951F920F920FB60F9262
S113023011242F933F934F935F936F937F938F93E7
S11302409F93AF93BF93EF93FF93E0917800F09166
S11302507900309709F00995FF91EF91BF91AF9123
S11302609F918F917F916F915F914F913F912F91CA
S11302700F900FBE0F901F9018951F920F920FB6FC
S11302800F9211242F933F934F935F936F937F9318
S11302908F939F93AF93BF93EF93FF93E0917A0073
S11302A0F0917B00309709F00995FF91EF91BF9190
S11302B0AF919F918F917F916F915F914F913F91FA
S11302C02F910F900FBE0F901F9018951F920F92B1
S11302D00FB60F9211242F933F934F935F936F9315
S11302E07F938F939F93AF93BF93EF93FF93E0918B
S11302F07C00F0917D00309709F00995FF91EF9112
S1130300BF91AF919F918F917F916F915F914F9129
S11303103F912F910F900FBE0F901F90189541E0C1
S113032065E083E390E00E94610041E064E083E3E0
S113033090E00E94610041E063E083E390E00E946A
S1130340610041E062E083E390E00E94610040E0EC
S113035067E080E390E00E94610040E066E080E3B3
S113036090E00E94610040E065E080E390E00E943C
S1130370610040E063E080E390E00E94610041E0BE
S113038065E083E390E00E949F0041E064E083E342
S113039090E00E949F0041E064E083E390E00E94CB
S11303A09F0041E064E083E390E00E949F00089591
S11303B00F931F93CF93DF9300E010E03BC040E026
S11303C0F801E059FF4F608183E390E00E949F00B1
S11303D0C0E0D0E021C0FE01EC58FF4F608180E313
S11303E090E00E94DD00811116C0F801EE0FFF1F9E
S11303F0EE0FFF1FE05AFF4FEC0FFD1F1081FE01AF
S1130400EC58FF4F608180E390E00E94DD00882378
S1130410B1F3812F13C02196C430D105E4F2F80161
S1130420E059FF4F41E0608183E390E00E949F0028
S11304300F5F1F4F0430110514F284E5DF91CF9153
S11304401F910F9108950E9438020E948F0141E08C
S113045066E089E390E00E9461000E94D801803345
S1130460E1F741E066E089E390E00E949F00F5CF68
S113047041E062E089E390E00E94610041E063E0D2
S113048089E390E00E94610041E065E086E390E04A
S11304900E94610041E066E086E390E00E94610012
S11304A041E062E089E390E00E949F0040E063E065
S11304B089E390E00E949F0041E065E086E390E0DC
S11304C00E949F0041E066E086E390E00E949F0066
S11304D041E060E086E390E00E94610041E061E079
S11304E086E390E00E94610041E062E086E390E0F0
S11304F00E94610041E064E086E390E00E946100B4
S11305000895EE0FFF1F0590F491E02D0994F894DF
S1050510FFCF17
S11305123738392F3435362A3132332D43303D2B97
S10B05220504030207060503AA
S9030000FC
