:100000000C943A000C9491040C94BA040C94E304FC
:100010000C9457000C9457000C9436060C94E4058D
:100020000C940D060C94BB050C9492050C94690578
:100030000C9457000C945F060C9457000C9488069F
:100040000C94EC030C9457000C9457000C9457003C
:100050000C945700210427042D04330439043F0471
:1000600045044B045F0465046B04710477047D044C
:100070008304890411241FBECFE5D8E0DEBFCDBFC5
:1000800010E0A0E6B0E0E4EFFDE002C005900D92C4
:10009000A436B107D9F720E0A4E6B0E001C01D9274
:1000A000AC37B207E1F70E949A030C94F8060C945F
:1000B000000041E062E089E390E00E94150441E025
:1000C00063E089E390E00E94150441E065E086E387
:1000D00090E00E94150441E066E086E390E00E9413
:1000E000150441E062E089E390E00E94530440E09F
:1000F00063E089E390E00E94530441E065E086E319
:1001000090E00E94530441E066E086E390E00E94A4
:10011000530441E060E086E390E00E94150441E072
:1001200061E086E390E00E94150441E062E086E32E
:1001300090E00E94150441E064E086E390E00E94B4
:100140001504089541E064E086E390E00E94150400
:1001500041E065E086E390E00E94150441E066E03E
:1001600086E390E00E94150441E067E086E390E0BA
:100170000E94150440E062E080E390E00E941504D4
:1001800040E063E080E390E00E94150440E064E01A
:1001900080E390E00E94150440E065E080E390E099
:1001A0000E94150441E064E086E390E00E9453045D
:1001B00041E065E086E390E00E94530441E065E0A1
:1001C00086E390E00E94530441E065E086E390E01E
:1001D0000E9453040895DF92EF92FF920F931F93B2
:1001E000CF93DF93D82EE12CF12C07E010E035C03F
:1001F0004D2D50E0002E02C0559547950A94E2F728
:100200004170FE01E05AFF4F608189E390E00E9457
:10021000530401501109219602C0C0E0D0E0C4305F
:10022000D10534F341E062E089E390E00E94530499
:100230008FE097E20197F1F700C0000040E062E034
:1002400089E390E00E9453048FE097E20197F1F771
:1002500000C000009FEFE91AF90A82E0E816F104F5
:10026000E4F2DF91CF911F910F91FF90EF90DF901B
:100270000895CF93C82F41E061E089E390E00E94A8
:1002800053048C2F0E94EB008FEC97E00197F1F75D
:1002900000C00000CF910895CF93C82F40E061E0E7
:1002A00089E390E00E9453048C2F0E94EB008FECB6
:1002B00097E00197F1F700C00000CF91089541E069
:1002C00061E089E390E00E94150441E062E089E387
:1002D00090E00E94150441E063E089E390E00E9411
:1002E000150441E064E089E390E00E94150441E0D8
:1002F00065E089E390E00E94150441E066E089E34F
:1003000090E00E9415042FE788E391E0215080409F
:100310009040E1F700C0000040E061E089E390E038
:100320000E94530482E00E944C0182E00E944C0132
:1003300088E00E944C018FEC97E00197F1F700C034
:10034000000080E00E944C018CE00E944C018FEC88
:1003500097E00197F1F700C0000080E00E944C0197
:1003600081E00E944C018FE697E10197F1F700C010
:10037000000080E00E944C0186E00E944C0108953C
:10038000CF92DF92EF92FF920F931F93CF93DF9361
:10039000CDB7DEB764970FB6F894DEBF0FBECDBF02
:1003A0006B017C01FE01319684E1DF011D928A958B
:1003B000E9F7C114D104E104F10421F480E30E94BF
:1003C00039013AC0FF205CF48DE20E943901F094BB
:1003D000E094D094C094C11CD11CE11CF11C00E03D
:1003E00010E015C0C701B6012AE030E040E050E05F
:1003F0000E94D306E1E0F0E0EC0FFD1FE00FF11FDB
:100400006083C22ED32EE42EF52E0F5F1F4F1C14D7
:100410001D041E041F0434F30CC001501109E1E057
:10042000F0E0EC0FFD1FE00FF11F8081805D0E9466
:100430003901101611068CF364960FB6F894DEBFDE
:100440000FBECDBFDF91CF911F910F91FF90EF9025
:10045000DF90CF90089581E00E944C018FEC97E0EF
:100460000197F1F700C00000089540E050E0E0E09F
:10047000F0E01BC09DEC899F912D112496959695D7
:100480009695692F660F362F330F330F360F282FAF
:10049000231B30E0042E02C0220F331F0A94E2F720
:1004A000E20FF31F4C5F5F4F892F8111E3CF8E2F37
:1004B0000895982F92959F708F70990F292F220F72
:1004C000220F920F890F089560E080E00E940C05D2
:1004D0000895FF920F931F93CF93DF9300D0CDB772
:1004E000DEB70E944605CE0102960E9464058A810D
:1004F000883009F046C080ED0E943F05CE0102968B
:100500000E9464058A818831E1F580E00E943F0500
:10051000CE0102960E9464058A81883191F50E947D
:100520004605CE0102960E9464058A81803449F511
:1005300081ED0E943F05CE0102960E9464058A81EA
:100540008831F9F4CE0101960E94520589810E94FA
:100550005902F82ECE0101960E94520589810E940F
:100560005902082FCE0101960E945B0589810E94E5
:100570005902182F0E944C056F2D702F812F90E08B
:1005800000C00F900F90DF91CF911F910F91FF90BE
:1005900008950F931F93CF93DF931F92CDB7DEB7CC
:1005A0008C010E944605CE0101960E946405898156
:1005B000883009F04EC080ED0E943F05CE010196C3
:1005C0000E9464058981883109F043C080E00E945F
:1005D0003F05CE0101960E94640589818832C9F5E4
:1005E000F80180810E9435020E943F05CE010196EC
:1005F0000E9464058981883261F5F80181810E9439
:1006000035020E943F05CE0101960E946405898152
:100610008832F9F4F80182810E943502F8012381C1
:10062000222361F0213039F48064F0E22F9F9001A1
:100630001124822B03C0211101C08F710E943F053C
:10064000CE0101960E9464058981803211F40E94D6
:100650004C050F90DF91CF911F910F910895EF926C
:10066000FF920F931F93CF93DF9300D0CDB7DEB7E8
:100670000E944605CE0102960E9464058A81883058
:1006800009F04FC080ED0E943F05CE0102960E9406
:1006900064058A81883109F044C083E00E943F05E7
:1006A000CE0102960E9464058A818831D1F50E94AC
:1006B0004605CE0102960E9464058A81803489F540
:1006C00081ED0E943F05CE0102960E9464058A8159
:1006D000883139F5CE0101960E94520589810E9428
:1006E0005902E82ECE0101960E94520589810E948E
:1006F0005902F82ECE0101960E94520589810E946E
:100700005902082FCE0101960E945B0589810E9443
:100710005902182F0E944C056E2D7F2D802F912F8E
:1007200000C00F900F90DF91CF911F910F91FF901C
:10073000EF900895CF93DF9300D000D0CDB7DEB710
:100740000E945F010E9459000E94A2000E94DA03E9
:100750000E94640241E060E083E390E00E9415049F
:1007600041E061E083E390E00E9415048EE189831B
:100770008DE28A8389E08B8381E08C83CE010196B0
:100780000E94C9020E946902172F0E942B02612F4A
:1007900070E080E090E00E94C0010E942F03192FBA
:1007A00084E40E943901612F70E080E090E00E94B3
:1007B000C001FFCF86B1887F86B986B1836086B9D4
:1007C00087B18F7387B987B187B987B18F7D87B9B3
:1007D00086B1806886B908951F920F920FB60F9266
:1007E00011242F933F934F935F936F937F938F9336
:1007F0009F93AF93BF93EF93FF93E0916400F091C9
:100800006500309709F00995FF91EF91BF91AF9185
:100810009F918F917F916F915F914F913F912F9118
:100820000F900FBE0F901F9018950F931F93062FD8
:1008300010E008301105A0F5F801E65DFF4F0C94BB
:10084000F206FC01218140FB20F9218329C0FC0133
:10085000218140FB21F9218323C0FC01218140FB40
:1008600022F921831DC0FC01218140FB23F9218352
:1008700017C0FC01218140FB24F9218311C0FC0138
:10088000218140FB25F921830BC0FC01218140FB24
:1008900026F9218305C0FC01218140FB27F9218332
:1008A0001F910F9108950F931F93062F10E00830AA
:1008B0001105A0F5F801EE5CFF4F0C94F206FC0167
:1008C000228140FB20F9228329C0FC01228140FBC8
:1008D00021F9228323C0FC01228140FB22F92283DB
:1008E0001DC0FC01228140FB23F9228317C0FC01BB
:1008F000228140FB24F9228311C0FC01228140FBAC
:1009000025F922830BC0FC01228140FB26F92283BA
:1009100005C0FC01228140FB27F922831F910F9122
:1009200008951F920F920FB60F9211242F933F93A9
:100930004F935F936F937F938F939F93AF93BF93E7
:10094000EF93FF93E0916600F0916700309709F014
:100950000995FF91EF91BF91AF919F918F917F91F9
:100960006F915F914F913F912F910F900FBE0F901C
:100970001F9018951F920F920FB60F9211242F936C
:100980003F934F935F936F937F938F939F93AF9317
:10099000BF93EF93FF93E0916800F0916900309767
:1009A00009F00995FF91EF91BF91AF919F918F91C0
:1009B0007F916F915F914F913F912F910F900FBE5B
:1009C0000F901F9018951F920F920FB60F9211243F
:1009D0002F933F934F935F936F937F938F939F9347
:1009E000AF93BF93EF93FF93E0916A00F0916B0098
:1009F000309709F00995FF91EF91BF91AF919F91C9
:100A00008F917F916F915F914F913F912F910F90B7
:100A10000FBE0F901F90189591B19C7F91B991B125
:100A2000982B91B9662319F06130A9F008958130AF
:100A300049F028F0823049F0833051F0089588E77A
:100A400080B908958EE180B9089587E880B9089546
:100A500081EE80B90895813049F028F0823049F064
:100A6000833051F0089588E180B9089586E880B90F
:100A7000089581EE80B9089588E380B9089583B917
:100A800084EA86BF06B607FEFDCF089584EA86BFD6
:100A900006B607FEFDCF089584E986BF06B604FCBE
:100AA000FDCF089524EC26BF06B607FEFDCF23B187
:100AB000FC012083089524E826BF06B607FEFDCF7B
:100AC00023B1FC0120830895FC0191B1987F9083AC
:100AD00008951F920F920FB60F9211242F933F93F8
:100AE0004F935F936F937F938F939F93AF93BF9336
:100AF000EF93FF93E0917600F0917700309709F043
:100B00000995FF91EF91BF91AF919F918F917F9147
:100B10006F915F914F913F912F910F900FBE0F906A
:100B20001F9018951F920F920FB60F9211242F93BA
:100B30003F934F935F936F937F938F939F93AF9365
:100B4000BF93EF93FF93E0917400F091750030979D
:100B500009F00995FF91EF91BF91AF919F918F910E
:100B60007F916F915F914F913F912F910F900FBEA9
:100B70000F901F9018951F920F920FB60F9211248D
:100B80002F933F934F935F936F937F938F939F9395
:100B9000AF93BF93EF93FF93E0917200F0917300D6
:100BA000309709F00995FF91EF91BF91AF919F9117
:100BB0008F917F916F915F914F913F912F910F9006
:100BC0000FBE0F901F9018951F920F920FB60F92A5
:100BD00011242F933F934F935F936F937F938F9342
:100BE0009F93AF93BF93EF93FF93E0917000F091C9
:100BF0007100309709F00995FF91EF91BF91AF9186
:100C00009F918F917F916F915F914F913F912F9124
:100C10000F900FBE0F901F9018951F920F920FB656
:100C20000F9211242F933F934F935F936F937F9372
:100C30008F939F93AF93BF93EF93FF93E0916E00D9
:100C4000F0916F00309709F00995FF91EF91BF91F6
:100C5000AF919F918F917F916F915F914F913F9154
:100C60002F910F900FBE0F901F9018951F920F920B
:100C70000FB60F9211242F933F934F935F936F936F
:100C80007F938F939F93AF93BF93EF93FF93E091E5
:100C90006C00F0916D00309709F00995FF91EF918C
:100CA000BF91AF919F918F917F916F915F914F9184
:100CB0003F912F910F900FBE0F901F9018951F928C
:100CC0000F920FB60F9211242F933F934F935F9380
:100CD0006F937F938F939F93AF93BF93EF93FF9304
:100CE000E0917A00F0917B00309709F00995FF912F
:100CF000EF91BF91AF919F918F917F916F915F9194
:100D00004F913F912F910F900FBE0F901F9018950C
:100D10001F920F920FB60F9211242F933F934F9370
:100D20005F936F937F938F939F93AF93BF93EF9353
:100D3000FF93E0917800F0917900309709F00995E0
:100D4000FF91EF91BF91AF919F918F917F916F91A3
:100D50005F914F913F912F910F900FBE0F901F9079
:100D60001895A1E21A2EAA1BBB1BFD010DC0AA1FDC
:100D7000BB1FEE1FFF1FA217B307E407F50720F004
:100D8000A21BB30BE40BF50B661F771F881F991F7F
:100D90001A9469F760957095809590959B01AC01C8
:100DA000BD01CF010895052E97FB1EF400940E940B
:100DB000EA0657FD07D00E94B10607FC03D04EF4A7
:100DC0000C94EA0650954095309521953F4F4F4F32
:100DD0005F4F089590958095709561957F4F8F4FE7
:100DE0009F4F0895EE0FFF1F0590F491E02D099499
:040DF000F894FFCFA5
:040DF40006050403E9
:00000001FF
