S00F00004E54495F4156522E73726563E2
S11300000C943A000C94CE020C94F7020C94200346
S11300100C9457000C9457000C9416040C94C403CD
S11300200C94ED030C949B030C9472030C944903FD
S11300300C9457000C9451040C9457000C947A04BB
S11300400C9429020C9457000C9457000C945700FC
S11300500C9457005E0264026A02700276027C020B
S1130060820288029C02A202A802AE02B402BA0270
S1130070C002C60211241FBECFE5D8E0DEBFCDBF4B
S113008010E0A0E6B0E0E6E5F9E002C005900D92CC
S1130090A436B107D9F720E0A4E6B0E001C01D9270
S11300A0AC37B207E1F70E9401020C94A9040C9446
S11300B0000041E062E089E390E00E94520241E0E6
S11300C063E089E390E00E94520241E065E086E348
S11300D090E00E94520241E066E086E390E00E94D4
S11300E0520241E062E089E390E00E94900240E025
S11300F063E089E390E00E94900241E065E086E3DA
S113010090E00E94900241E066E086E390E00E9465
S1130110900241E060E086E390E00E94520241E0F8
S113012061E086E390E00E94520241E062E086E3EF
S113013090E00E94520241E064E086E390E00E9475
S1130140520208950E943F0441E061E080E390E0A0
S11301500E94520240E060E080E390E00E9452027C
S11301600895CF93DF931F92CDB7DEB78FEE0E9431
S1130170470481E00E9447048FEF0E9447048FEFF9
S11301800E9447048FEF0E9447048FEF0E944704A8
S113019081E00E94470480E00E94470483E00E94BB
S11301A0470480E40E94470480E00E94470484E4FA
S11301B00E944704CE0101960E944B0489810F904E
S11301C0DF91CF91089541E064E086E390E00E94DE
S11301D0520241E065E086E390E00E94520241E071
S11301E066E086E390E00E94520241E067E086E325
S11301F090E00E94520240E062E080E390E00E94BE
S1130200520240E063E080E390E00E94520240E04A
S113021064E080E390E00E94520240E065E080E305
S113022090E00E94520241E064E086E390E00E9484
S1130230900241E065E086E390E00E94900241E094
S113024065E086E390E00E94900241E065E086E389
S113025090E00E9490020895DF92EF92FF920F9334
S11302601F93CF93DF93D82EE12CF12C07E010E0FD
S113027035C04D2D50E0002E02C0559547950A9487
S1130280E2F74170FE01E05AFF4F608189E390E09C
S11302900E94900201501109219602C0C0E0D0E0F2
S11302A0C430D10534F341E062E089E390E00E9478
S11302B090028FE097E20197F1F700C0000040E060
S11302C062E089E390E00E9490028FE097E2019758
S11302D0F1F700C000009FEFE91AF90A82E0E8167E
S11302E0F104E4F2DF91CF911F910F91FF90EF9011
S11302F0DF900895CF93C82F41E061E089E390E057
S11303000E9490028C2F0E942C018FEC97E00197A1
S1130310F1F700C00000CF910895CF93C82F40E0BB
S113032061E089E390E00E9490028C2F0E942C01EE
S11303308FEC97E00197F1F700C00000CF9108958A
S113034041E061E089E390E00E94520241E062E012
S113035089E390E00E94520241E063E089E390E087
S11303600E94520241E064E089E390E00E9452025C
S113037041E065E089E390E00E94520241E066E0DA
S113038089E390E00E9452022FE788E391E0215034
S113039080409040E1F700C0000040E061E089E364
S11303A090E00E94900282E00E948D0182E00E940F
S11303B08D0188E00E948D018FEC97E00197F1F7A1
S11303C000C0000080E00E948D018CE00E948D013D
S11303D08FEC97E00197F1F700C0000080E00E94E5
S11303E08D0181E00E948D018FE697E10197F1F77D
S11303F000C0000080E00E948D0186E00E948D0113
S113040008950E94A0010E9459000E94E3000E94E6
S113041017020E94A2000E94B100811104C083E56A
S11304200E947A0103C086E40E947A01FFCF86B15C
S1130430887F86B986B1836086B987B18F7387B99F
S113044087B187B987B18F7D87B986B1806886B94E
S113045008951F920F920FB60F9211242F933F937A
S11304604F935F936F937F938F939F93AF93BF93B8
S1130470EF93FF93E0916400F0916500309709F0E9
S11304800995FF91EF91BF91AF919F918F917F91CA
S11304906F915F914F913F912F910F900FBE0F90ED
S11304A01F9018950F931F93062F10E00830110525
S11304B0A0F5F801E65DFF4F0C94A304FC01218133
S11304C040FB20F9218329C0FC01218140FB21F953
S11304D0218323C0FC01218140FB22F921831DC01B
S11304E0FC01218140FB23F9218317C0FC012181F8
S11304F040FB24F9218311C0FC01218140FB25F933
S113050021830BC0FC01218140FB26F9218305C016
S1130510FC01218140FB27F921831F910F9108954C
S11305200F931F93062F10E008301105A0F5F80172
S1130530EE5CFF4F0C94A304FC01228140FB20F9E4
S1130540228329C0FC01228140FB21F9228323C09C
S1130550FC01228140FB22F922831DC0FC0122817F
S113056040FB23F9228317C0FC01228140FB24F9BC
S1130570228311C0FC01228140FB25F922830BC098
S1130580FC01228140FB26F9228305C0FC01228163
S113059040FB27F922831F910F9108951F920F9218
S11305A00FB60F9211242F933F934F935F936F9342
S11305B07F938F939F93AF93BF93EF93FF93E091B8
S11305C06600F0916700309709F00995FF91EF916B
S11305D0BF91AF919F918F917F916F915F914F9157
S11305E03F912F910F900FBE0F901F9018951F925F
S11305F00F920FB60F9211242F933F934F935F9353
S11306006F937F938F939F93AF93BF93EF93FF93D6
S1130610E0916800F0916900309709F00995FF9125
S1130620EF91BF91AF919F918F917F916F915F9166
S11306304F913F912F910F900FBE0F901F901895DF
S11306401F920F920FB60F9211242F933F934F9343
S11306505F936F937F938F939F93AF93BF93EF9326
S1130660FF93E0916A00F0916B00309709F00995CF
S1130670FF91EF91BF91AF919F918F917F916F9176
S11306805F914F913F912F910F900FBE0F901F904C
S113069018951F920F920FB60F9211242F933F9328
S11306A04F935F936F937F938F939F93AF93BF9376
S11306B0EF93FF93E0917600F0917700309709F083
S11306C00995FF91EF91BF91AF919F918F917F9188
S11306D06F915F914F913F912F910F900FBE0F90AB
S11306E01F9018951F920F920FB60F9211242F93FB
S11306F03F934F935F936F937F938F939F93AF93A6
S1130700BF93EF93FF93E0917400F09175003097DD
S113071009F00995FF91EF91BF91AF919F918F914E
S11307207F916F915F914F913F912F910F900FBEE9
S11307300F901F9018951F920F920FB60F921124CD
S11307402F933F934F935F936F937F938F939F93D5
S1130750AF93BF93EF93FF93E0917200F091730016
S1130760309709F00995FF91EF91BF91AF919F9157
S11307708F917F916F915F914F913F912F910F9046
S11307800FBE0F901F9018951F920F920FB60F92E5
S113079011242F933F934F935F936F937F938F9382
S11307A09F93AF93BF93EF93FF93E0917000F09109
S11307B07100309709F00995FF91EF91BF91AF91C6
S11307C09F918F917F916F915F914F913F912F9165
S11307D00F900FBE0F901F9018951F920F920FB697
S11307E00F9211242F933F934F935F936F937F93B3
S11307F08F939F93AF93BF93EF93FF93E0916E001A
S1130800F0916F00309709F00995FF91EF91BF9136
S1130810AF919F918F917F916F915F914F913F9194
S11308202F910F900FBE0F901F9018951F920F924B
S11308300FB60F9211242F933F934F935F936F93AF
S11308407F938F939F93AF93BF93EF93FF93E09125
S11308506C00F0916D00309709F00995FF91EF91CC
S1130860BF91AF919F918F917F916F915F914F91C4
S11308703F912F910F900FBE0F901F90189510BCB1
S113088080E189B988E18AB98EEE80BD08955D9BC7
S1130890FECF8CB908955F9BFECF2CB1FC01208361
S11308A008951F920F920FB60F9211242F933F9326
S11308B04F935F936F937F938F939F93AF93BF9364
S11308C0EF93FF93E0917A00F0917B00309709F069
S11308D00995FF91EF91BF91AF919F918F917F9176
S11308E06F915F914F913F912F910F900FBE0F9099
S11308F01F9018951F920F920FB60F9211242F93E9
S11309003F934F935F936F937F938F939F93AF9393
S1130910BF93EF93FF93E0917800F09179003097C3
S113092009F00995FF91EF91BF91AF919F918F913C
S11309307F916F915F914F913F912F910F900FBED7
S11309400F901F901895EE0FFF1F0590F491E02D66
S10909500994F894FFCFA6
S10709560605040387
S9030000FC
