S00F00004E54495F4156522E73726563E2
S11300000C9442000C9485030C94AE030C94D70317
S11300100C945F000C945F000C943C050C94EA046F
S11300200C9413050C94C1040C9498040C946F0460
S11300300C945F000C9465050C945F000C948E0581
S11300400C9491020C945F000C945F000C945F007C
S11300500C945F00C602CC02D202D802DE02E40293
S1130060EA02F00204030A03100316031C0322032A
S113007028032E034003440349034F0355035A0343
S11300806003660311241FBECFE5D8E0DEBFCDBFF9
S113009010E0A0E6B0E0E2ECFBE002C005900D92B7
S11300A0A637B107D9F720E0A6E7B0E001C01D925A
S11300B0A239B207E1F70E9474020C94DF050C9494
S11300C00000CF93DF938091760090917700A09108
S11300D07800B09179000196A11DB11D809376003E
S11300E090937700A0937800B0937900C0E0D0E0BB
S11300F029C060917600709177008091780090918A
S11301007900FE01EE0FFF1FEC0FFD1FEE0FFF1F26
S1130110EC59FF4F20813181428153810E94B70500
S1130120672B682B692B69F4FE01EE0FFF1FEC0FA0
S1130130FD1FEE0FFF1FEC59FF4F0480F581E02DEA
S113014009952196C330D105A4F28091760090914F
S11301507700A0917800B0917900843B9105A105C6
S1130160B10541F410927600109277001092780055
S113017010927900DF91CF91089562E083E390E0DB
S11301800E946D03089560E083E390E00E946D0394
S1130190089567E083E390E00E943603811105C06F
S11301A061E083E390E00E946D03089541E060E024
S11301B083E390E00E94BA0241E061E083E390E0CF
S11301C00E94BA0241E062E083E390E00E94BA0236
S11301D040E067E083E390E00E94BA0241E063E319
S11301E083E390E00E94F80240E065E080E00E9432
S11301F0000461E670E081E00E945A0481E00E94FC
S11302004D040E94040108958FB780688FBF08953C
S113021041E062E089E390E00E94BA0241E063E0D9
S113022089E390E00E94BA0241E065E086E390E051
S11302300E94BA0241E066E086E390E00E94BA02BE
S113024041E062E089E390E00E94F80240E063E06C
S113025089E390E00E94F80241E065E086E390E0E3
S11302600E94F80241E066E086E390E00E94F80212
S113027041E060E086E390E00E94BA0241E061E080
S113028086E390E00E94BA0241E062E086E390E0F7
S11302900E94BA0241E064E086E390E00E94BA0260
S11302A0089541E064E086E390E00E94BA0241E0F0
S11302B065E086E390E00E94BA0241E066E086E3EE
S11302C090E00E94BA0241E067E086E390E00E9479
S11302D0BA0240E062E080E390E00E94BA0240E0AB
S11302E063E080E390E00E94BA0240E064E080E3CF
S11302F090E00E94BA0240E065E080E390E00E9452
S1130300BA0241E064E086E390E00E94F80241E032
S113031065E086E390E00E94F80241E065E086E350
S113032090E00E94F80241E065E086E390E00E94DC
S1130330F80241E062E080E390E00E94F80241E0CC
S113034063E080E390E00E94F80241E064E080E32F
S113035090E00E94F80241E065E080E390E00E94B2
S1130360F8020895DF92EF92FF920F931F93CF93B9
S1130370DF93D82EE12CF12C07E010E035C04D2D91
S113038050E0002E02C0559547950A94E2F741705B
S1130390FE01E05AFF4F608189E390E00E94F80279
S11303A001501109219602C0C0E0D0E0C430D1054B
S11303B034F341E062E089E390E00E94F8028FE0C8
S11303C097E20197F1F700C0000040E062E089E3A2
S11303D090E00E94F8028FE097E20197F1F700C0E5
S11303E000009FEFE91AF90A82E0E816F104E4F24A
S11303F0DF91CF911F910F91FF90EF90DF900895BF
S1130400CF93C82F40E061E089E390E00E94F802B6
S11304108C2F0E94B2018FEC97E00197F1F700C096
S11304200000CF91089541E061E089E390E00E94EB
S1130430BA0241E062E089E390E00E94BA0241E03E
S113044063E089E390E00E94BA0241E064E089E35A
S113045090E00E94BA0241E065E089E390E00E94E6
S1130460BA0241E066E089E390E00E94BA022FE715
S113047088E391E0215080409040E1F700C0000003
S113048040E061E089E390E00E94F80282E00E948B
S1130490000282E00E94000288E20E9400028FECC7
S11304A097E00197F1F700C0000080E00E9400028D
S11304B08CE00E9400028FEC97E00197F1F700C0F6
S11304C0000080E00E94000281E00E9400028FE6AA
S11304D097E10197F1F700C0000080E00E9400025C
S11304E086E00E94000208950E9413020E940801FF
S11304F00E9451010E947F020E94D600FFCF86B164
S1130500887F86B986B1836086B987B18F7387B9CE
S113051087B187B987B18F7D87B986B1806886B97D
S113052008951F920F920FB60F9211242F933F93A9
S11305304F935F936F937F938F939F93AF93BF93E7
S1130540EF93FF93E0917A00F0917B00309709F0EC
S11305500995FF91EF91BF91AF919F918F917F91F9
S11305606F915F914F913F912F910F900FBE0F901C
S11305701F9018950F931F93062F10E00830110554
S1130580A0F5F801E65DFF4F0C94D905FC0121812B
S113059040FB20F9218329C0FC01218140FB21F982
S11305A0218323C0FC01218140FB22F921831DC04A
S11305B0FC01218140FB23F9218317C0FC01218127
S11305C040FB24F9218311C0FC01218140FB25F962
S11305D021830BC0FC01218140FB26F9218305C046
S11305E0FC01218140FB27F921831F910F9108957C
S11305F00F931F93062F10E008301105A0F5F801A2
S1130600EE5CFF4F0C94D905FC01228140FB20F9DC
S1130610228329C0FC01228140FB21F9228323C0CB
S1130620FC01228140FB22F922831DC0FC012281AE
S113063040FB23F9228317C0FC01228140FB24F9EB
S1130640228311C0FC01228140FB25F922830BC0C7
S1130650FC01228140FB26F9228305C0FC01228192
S113066040FB27F922831F910F910895462F50E0F4
S11306704830510580F5FA01E65CFF4F0C94D9052A
S1130680FC012081217027C0FC0120812695217066
S113069022C0FC01208122FB222720F91CC0FC017E
S11306A0208123FB222720F916C0FC0120812295FA
S11306B0217011C0FC01208125FB222720F90BC0E9
S11306C0FC01208126FB222720F905C0FC012081A2
S11306D027FB222720F9822F08951F93CF93DF93BE
S11306E0EC01162F0E943603813031F440E0612F73
S11306F0CE010E94F80205C041E0612FCE010E94A4
S1130700F802DF91CF911F9108951F920F920FB6B7
S11307100F9211242F933F934F935F936F937F9383
S11307208F939F93AF93BF93EF93FF93E0917C00DC
S1130730F0917D00309709F00995FF91EF91BF91F9
S1130740AF919F918F917F916F915F914F913F9165
S11307502F910F900FBE0F901F9018951F920F921C
S11307600FB60F9211242F933F934F935F936F9380
S11307707F938F939F93AF93BF93EF93FF93E091F6
S11307807E00F0917F00309709F00995FF91EF9179
S1130790BF91AF919F918F917F916F915F914F9195
S11307A03F912F910F900FBE0F901F9018951F929D
S11307B00F920FB60F9211242F933F934F935F9391
S11307C06F937F938F939F93AF93BF93EF93FF9315
S11307D0E0918000F0918100309709F00995FF9134
S11307E0EF91BF91AF919F918F917F916F915F91A5
S11307F04F913F912F910F900FBE0F901F9018951E
S1130800813069F028F0823089F08330B1F01BC068
S113081083B78F7B83BF83B7877F83BF14C083B7BE
S1130820806483BF83B7877F83BF0DC083B78F7B0B
S113083083BF83B7886083BF06C083B7806483BFE8
S113084083B7886083BF413069F028F0423089F073
S11308504330B1F01BC083B78F7E83BF83B78F7DD6
S113086083BF14C083B7806183BF83B78F7D83BF89
S11308700DC083B78F7E83BF83B7806283BF06C0FA
S113088083B7806183BF83B7806283BF83B7887F68
S113089083BF83B7682B63BF0895882319F0813021
S11308A029F0089589B7826089BF089589B7816066
S11308B089BF0895882319F0813049F0089561159E
S11308C0710561F070938B0060938A00089561153F
S11308D0710521F070938D0060938C0008951F9230
S11308E00F920FB60F9211242F933F934F935F9360
S11308F06F937F938F939F93AF93BF93EF93FF93E4
S1130900E0918C00F0918D00309709F00995FF91EA
S1130910EF91BF91AF919F918F917F916F915F9173
S11309204F913F912F910F900FBE0F901F901895EC
S11309301F920F920FB60F9211242F933F934F9350
S11309405F936F937F938F939F93AF93BF93EF9333
S1130950FF93E0918A00F0918B00309709F009959C
S1130960FF91EF91BF91AF919F918F917F916F9183
S11309705F914F913F912F910F900FBE0F901F9059
S113098018951F920F920FB60F9211242F933F9335
S11309904F935F936F937F938F939F93AF93BF9383
S11309A0EF93FF93E0918800F0918900309709F06C
S11309B00995FF91EF91BF91AF919F918F917F9195
S11309C06F915F914F913F912F910F900FBE0F90B8
S11309D01F9018951F920F920FB60F9211242F9308
S11309E03F934F935F936F937F938F939F93AF93B3
S11309F0BF93EF93FF93E0918600F09187003097C7
S1130A0009F00995FF91EF91BF91AF919F918F915B
S1130A107F916F915F914F913F912F910F900FBEF6
S1130A200F901F9018951F920F920FB60F921124DA
S1130A302F933F934F935F936F937F938F939F93E2
S1130A40AF93BF93EF93FF93E0918400F0918500FF
S1130A50309709F00995FF91EF91BF91AF919F9164
S1130A608F917F916F915F914F913F912F910F9053
S1130A700FBE0F901F9018951F920F920FB60F92F2
S1130A8011242F933F934F935F936F937F938F938F
S1130A909F93AF93BF93EF93FF93E0918200F09104
S1130AA08300309709F00995FF91EF91BF91AF91C1
S1130AB09F918F917F916F915F914F913F912F9172
S1130AC00F900FBE0F901F9018951F920F920FB6A4
S1130AD00F9211242F933F934F935F936F937F93C0
S1130AE08F939F93AF93BF93EF93FF93E091900005
S1130AF0F0919100309709F00995FF91EF91BF9122
S1130B00AF919F918F917F916F915F914F913F91A1
S1130B102F910F900FBE0F901F9018951F920F9258
S1130B200FB60F9211242F933F934F935F936F93BC
S1130B307F938F939F93AF93BF93EF93FF93E09132
S1130B408E00F0918F00309709F00995FF91EF9195
S1130B50BF91AF919F918F917F916F915F914F91D1
S1130B603F912F910F900FBE0F901F901895A1E207
S1130B701A2EAA1BBB1BFD010DC0AA1FBB1FEE1F13
S1130B80FF1FA217B307E407F50720F0A21BB30B5E
S1130B90E40BF50B661F771F881F991F1A9469F7DA
S1130BA060957095809590959B01AC01BD01CF0136
S1130BB00895EE0FFF1F0590F491E02D0994F89429
S1050BC0FFCF61
S1130BC2060504033C000000C3001E000000C90027
S1090BD2B4000000BD00A8
S9030000FC
