S00F00004E54495F4156522E73726563E2
S11300000C943A000C9485020C94AE020C94D70222
S11300100C9457000C9457000C94CD030C947B0360
S11300200C94A4030C9452030C9429030C94000321
S11300300C9457000C94F6030C9457000C941F0472
S11300400C94E0010C9457000C9457000C94570046
S11300500C94570015021B02210227022D023302C1
S113006039023F02530259025F0265026B027102B8
S113007077027D0211241FBECFE5D8E0DEBFCDBFDD
S113008010E0A0E6B0E0E0EAF8E002C005900D92CE
S1130090A436B107D9F720E0A4E6B0E001C01D9270
S11300A0AC37B207E1F70E94C5010C944E040C94DE
S11300B0000041E062E089E390E00E94090241E02F
S11300C063E089E390E00E94090241E065E086E391
S11300D090E00E94090241E066E086E390E00E941D
S11300E0090241E062E089E390E00E94470240E0B7
S11300F063E089E390E00E94470241E065E086E323
S113010090E00E94470241E066E086E390E00E94AE
S1130110470241E060E086E390E00E94090241E08A
S113012061E086E390E00E94090241E062E086E338
S113013090E00E94090241E064E086E390E00E94BE
S11301400902089541E064E086E390E00E94090218
S113015041E065E086E390E00E94090241E066E048
S113016086E390E00E94090241E067E086E390E0C4
S11301700E94090240E062E080E390E00E940902EC
S113018040E063E080E390E00E94090240E064E024
S113019080E390E00E94090240E065E080E390E0A3
S11301A00E94090241E064E086E390E00E94470275
S11301B041E065E086E390E00E94470241E065E0AB
S11301C086E390E00E94470241E065E086E390E028
S11301D00E94470241E062E080E390E00E9447020F
S11301E041E063E080E390E00E94470241E064E084
S11301F080E390E00E94470241E065E080E390E004
S11302000E9447020895DF92EF92FF920F931F938B
S1130210CF93DF93D82EE12CF12C07E010E035C00A
S11302204D2D50E0002E02C0559547950A94E2F7F3
S11302304170FE01E05AFF4F608189E390E00E9423
S1130240470201501109219602C0C0E0D0E0C43039
S1130250D10534F341E062E089E390E00E94470273
S11302608FE097E20197F1F700C0000040E062E000
S113027089E390E00E9447028FE097E20197F1F74B
S113028000C000009FEFE91AF90A82E0E816F104C1
S1130290E4F2DF91CF911F910F91FF90EF90DF90E7
S11302A00895CF93C82F40E061E089E390E00E9475
S11302B047028C2F0E9403018FEC97E00197F1F71E
S11302C000C00000CF91089541E061E089E390E02F
S11302D00E94090241E062E089E390E00E94090281
S11302E041E063E089E390E00E94090241E064E0B8
S11302F089E390E00E94090241E065E089E390E02F
S11303000E94090241E066E089E390E00E9409024C
S11303102FE788E391E0215080409040E1F700C04E
S1130320000040E061E089E390E00E94470282E03F
S11303300E94510182E00E94510188E20E94510111
S11303408FEC97E00197F1F700C0000080E00E9475
S113035051018CE00E9451018FEC97E00197F1F775
S113036000C0000080E00E94510181E00E94510120
S11303708FE697E10197F1F700C0000080E00E944A
S1130380510186E00E94510108950E9464010E9477
S113039059000E94A2000E94CE01FFCF86B1887F3F
S11303A086B986B1836086B987B18F7387B987B1FF
S11303B087B987B18F7D87B986B1806886B908957A
S11303C01F920F920FB60F9211242F933F934F93C6
S11303D05F936F937F938F939F93AF93BF93EF93A9
S11303E0FF93E0916400F0916500309709F009955E
S11303F0FF91EF91BF91AF919F918F917F916F91F9
S11304005F914F913F912F910F900FBE0F901F90CE
S113041018950F931F93062F10E008301105A0F5CF
S1130420F801E65DFF4F0C944804FC01218140FB78
S113043020F9218329C0FC01218140FB21F921837A
S113044023C0FC01218140FB22F921831DC0FC0152
S1130450218140FB23F9218317C0FC01218140FB4A
S113046024F9218311C0FC01218140FB25F921835A
S11304700BC0FC01218140FB26F9218305C0FC014E
S1130480218140FB27F921831F910F9108950F9338
S11304901F93062F10E008301105A0F5F801EE5C5B
S11304A0FF4F0C944804FC01228140FB20F9228375
S11304B029C0FC01228140FB21F9228323C0FC01D5
S11304C0228140FB22F922831DC0FC01228140FBD2
S11304D023F9228317C0FC01228140FB24F92283E3
S11304E011C0FC01228140FB25F922830BC0FC01D1
S11304F0228140FB26F9228305C0FC01228140FBB6
S113050027F922831F910F9108951F920F920FB61E
S11305100F9211242F933F934F935F936F937F9385
S11305208F939F93AF93BF93EF93FF93E0916600F4
S1130530F0916700309709F00995FF91EF91BF9111
S1130540AF919F918F917F916F915F914F913F9167
S11305502F910F900FBE0F901F9018951F920F921E
S11305600FB60F9211242F933F934F935F936F9382
S11305707F938F939F93AF93BF93EF93FF93E091F8
S11305806800F0916900309709F00995FF91EF91A7
S1130590BF91AF919F918F917F916F915F914F9197
S11305A03F912F910F900FBE0F901F9018951F929F
S11305B00F920FB60F9211242F933F934F935F9393
S11305C06F937F938F939F93AF93BF93EF93FF9317
S11305D0E0916A00F0916B00309709F00995FF9162
S11305E0EF91BF91AF919F918F917F916F915F91A7
S11305F04F913F912F910F900FBE0F901F90189520
S11306001F920F920FB60F9211242F933F934F9383
S11306105F936F937F938F939F93AF93BF93EF9366
S1130620FF93E0917600F0917700309709F00995F7
S1130630FF91EF91BF91AF919F918F917F916F91B6
S11306405F914F913F912F910F900FBE0F901F908C
S113065018951F920F920FB60F9211242F933F9368
S11306604F935F936F937F938F939F93AF93BF93B6
S1130670EF93FF93E0917400F0917500309709F0C7
S11306800995FF91EF91BF91AF919F918F917F91C8
S11306906F915F914F913F912F910F900FBE0F90EB
S11306A01F9018951F920F920FB60F9211242F933B
S11306B03F934F935F936F937F938F939F93AF93E6
S11306C0BF93EF93FF93E0917200F0917300309722
S11306D009F00995FF91EF91BF91AF919F918F918F
S11306E07F916F915F914F913F912F910F900FBE2A
S11306F00F901F9018951F920F920FB60F9211240E
S11307002F933F934F935F936F937F938F939F9315
S1130710AF93BF93EF93FF93E0917000F09171005A
S1130720309709F00995FF91EF91BF91AF919F9197
S11307308F917F916F915F914F913F912F910F9086
S11307400FBE0F901F9018951F920F920FB60F9225
S113075011242F933F934F935F936F937F938F93C2
S11307609F93AF93BF93EF93FF93E0916E00F0914B
S11307706F00309709F00995FF91EF91BF91AF9108
S11307809F918F917F916F915F914F913F912F91A5
S11307900F900FBE0F901F9018951F920F920FB6D7
S11307A00F9211242F933F934F935F936F937F93F3
S11307B08F939F93AF93BF93EF93FF93E0916C005C
S11307C0F0916D00309709F00995FF91EF91BF9179
S11307D0AF919F918F917F916F915F914F913F91D5
S11307E02F910F900FBE0F901F9018951F920F928C
S11307F00FB60F9211242F933F934F935F936F93F0
S11308007F938F939F93AF93BF93EF93FF93E09165
S11308107A00F0917B00309709F00995FF91EF91F0
S1130820BF91AF919F918F917F916F915F914F9104
S11308303F912F910F900FBE0F901F9018951F920C
S11308400F920FB60F9211242F933F934F935F9300
S11308506F937F938F939F93AF93BF93EF93FF9384
S1130860E0917800F0917900309709F00995FF91B3
S1130870EF91BF91AF919F918F917F916F915F9114
S11308804F913F912F910F900FBE0F901F9018958D
S1130890EE0FFF1F0590F491E02D0994F894FFCF1B
S10708A0060504033E
S9030000FC
