:100000000C943A000C941E010C9447010C9470015E
:100010000C9457000C9457000C9457000C94570004
:100020000C9457000C9457000C9457000C945700F4
:100030000C9457000C9457000C9457000C945700E4
:100040000C9457000C9457000C9457000C945700D4
:100050000C94570065006B00710077007D008300F1
:1000600089008F00A300A900AF00B500BB00C1004C
:10007000C700CD0011241FBECFE5D8E0DEBFCDBF45
:1000800010E0A0E6B0E0E2E6F4E002C005900D92D8
:10009000A036B107D9F720E0A0E6B0E001C01D927C
:1000A000A636B207E1F70E94B7010C942F020C9418
:1000B00000000F931F93062F10E008301105A0F5E4
:1000C000F801E65DFF4F0C942902FC01218140FB01
:1000D00020F9218329C0FC01218140FB21F92183E2
:1000E00023C0FC01218140FB22F921831DC0FC01BA
:1000F000218140FB23F9218317C0FC01218140FBB2
:1001000024F9218311C0FC01218140FB25F92183C1
:100110000BC0FC01218140FB26F9218305C0FC01B5
:10012000218140FB27F921831F910F9108950F939F
:100130001F93062F10E008301105A0F5F801EE5CC2
:10014000FF4F0C942902FC01228140FB20F92283FD
:1001500029C0FC01228140FB21F9228323C0FC013C
:10016000228140FB22F922831DC0FC01228140FB39
:1001700023F9228317C0FC01228140FB24F922834A
:1001800011C0FC01228140FB25F922830BC0FC0138
:10019000228140FB26F9228305C0FC01228140FB1D
:1001A00027F922831F910F9108959BEF980F9330A9
:1001B00070F59BB721E030E0082E02C0220F331FFC
:1001C0000A94E2F7292B2BBF863029F0873051F0B3
:1001D0008530E9F413C085B78C7F85BF85B7682B60
:1001E00065BF089585B7837F85BF85B770E0660FCB
:1001F000771F660F771F682B65BF0895623021F463
:1002000084B78F7B84BF089584B7806484BF0895CA
:10021000663029F0673041F0653079F40AC0909378
:100220006100809360000895909363008093620062
:100230000895909365008093640008951F920F9233
:100240000FB60F9211242F933F934F935F936F93A9
:100250007F938F939F93AF93BF93EF93FF93E0911F
:100260006000F0916100309709F00995FF91EF91DE
:10027000BF91AF919F918F917F916F915F914F91BE
:100280003F912F910F900FBE0F901F9018951F92C6
:100290000F920FB60F9211242F933F934F935F93BA
:1002A0006F937F938F939F93AF93BF93EF93FF933E
:1002B000E0916200F0916300309709F00995FF9199
:1002C000EF91BF91AF919F918F917F916F915F91CE
:1002D0004F913F912F910F900FBE0F901F90189547
:1002E0001F920F920FB60F9211242F933F934F93AB
:1002F0005F936F937F938F939F93AF93BF93EF938E
:10030000FF93E0916400F0916500309709F0099542
:10031000FF91EF91BF91AF919F918F917F916F91DD
:100320005F914F913F912F910F900FBE0F901F90B3
:1003300018958FB780688FBF089541E062E083E32E
:1003400090E00E94590041E062E083E390E00E9467
:100350009700089541E060E083E390E00E94590037
:1003600041E060E083E390E00E94970008950E94DE
:10037000E00140E062E080E390E00E94590040E04C
:1003800063E080E390E00E94590040E064E080E395
:1003900090E00E94590063E086E00E94D50063E08F
:1003A00087E00E94D50066E08AEA91E00E94080199
:1003B00067E08DE991E00E9408010E949901FFCF5A
:1003C00041E062E089E390E00E94590041E063E08F
:1003D00089E390E00E94590041E065E086E390E007
:1003E0000E94590041E066E086E390E00E945900D7
:1003F00041E062E089E390E00E94970040E063E022
:1004000089E390E00E94970041E065E086E390E098
:100410000E94970041E066E086E390E00E9497002A
:1004200041E060E086E390E00E94590041E061E035
:1004300086E390E00E94590041E062E086E390E0AC
:100440000E94590041E064E086E390E00E94590078
:100450000895EE0FFF1F0590F491E02D0994F89494
:02046000FFCFCC
:00000001FF
